:1000000054C000006FC000006DC000006BC0000055
:1000100069C0000067C0000065C0000063C0000048
:1000200061C000005FC000005DC000005BC0000058
:1000300059C00000E5C0000055C0000053C00000DA
:1000400051C000004FC000004DC000004BC0000078
:1000500049C0000047C0000045C0000043C0000088
:1000600041C000003FC000003DC000003BC0000098
:1000700039C0000037C0000035C0000033C00000A8
:1000800031C000002FC000002DC000006B027B02B9
:100090008B029B02AB02BB02CB02DB023F03660377
:1000A000B1036C0375038203820311241FBECFEFDB
:1000B000D0E4DEBFCDBF11E0A0E0B1E0EAE2FEE0B7
:1000C00000E00BBF02C007900D92A833B107D9F72B
:1000D00021E0A8E3B1E001C01D92A937B207E1F722
:1000E00025D4A1C68DCF181619065CF0089500001E
:1000F00021503109E1F74F5F5F4F8417950719F4DD
:10010000089540E050E027E033E0F1CF10988BB93C
:10011000119A0000119882E090E0E5CF089581E007
:10012000F5CF0895813118F48158F0CF08958155A5
:10013000EDCF089584E690E0D6DF88E3E7DF86E040
:10014000E5DF8FE0E3DF81E0E1DF8AE090E0CBCF25
:100150000895109A8BB9119A0000119881E090E0EF
:10016000C2CF08950F931F93CF93DF93182FEB0106
:10017000D6DF8881882351F001E0010F812FD2DF83
:100180008991E7DF102F88818111F6CFDF91CF9120
:100190001F910F9108956093000170930101809366
:1001A0000201909303016093740170937501809331
:1001B00076019093770108958BE0809381008DE71D
:1001C00090E0909389008093880082E080936F0094
:1001D000109285001092840080910001909101019D
:1001E000A0910201B0910301809374019093750175
:1001F000A0937601B09377018FB780688FBF089581
:100200001F920F920FB60F9211248F939F93AF936B
:10021000BF938091740190917501A0917601B09186
:1002200077010197A109B109809374019093750139
:10023000A0937601B0937701892B8A2B8B2B99F4AD
:1002400081E0809378018091000190910101A0915B
:100250000201B09103018093740190937501A09302
:100260007601B0937701BF91AF919F918F910F90DD
:100270000FBE0F901F901895CF92DF92EF92FF92D2
:100280006B017C019B01AC01609160017091610187
:10029000809162019091630122D4882309F452C0B5
:1002A00020E030E0A901C701B60119D4811106C0D0
:1002B000E1E9F0E080818870808305C0E1E9F0E049
:1002C00080818360808328E539E344E75FE3C701E9
:1002D000B60105D488233CF48FEF9FEF90939900EB
:1002E0008093980023C020E034E244EF56E4C70135
:1002F000B60107D518162CF41092990010929800A8
:1003000015C020E030E040E053E4C701B601FDD461
:100310009B01AC0160E074E284EF9AE4E4D34BD437
:100320006150710970939900609398001092950044
:1003300010929400C0926001D0926101E09262013B
:10034000F0926301FF90EF90DF90CF900895CF93EC
:1003500026B136B18130910579F01CF4892B39F042
:1003600020C08230910591F00397A9F01AC020FFB8
:1003700033C031FF48C027C031E020E080915F01E9
:10038000823009F430E0832F922F0DC080915F01FD
:100390008230C9F518C080915F01843009F04AC0ED
:1003A00012C080E090E081309105B1F024F4009714
:1003B00009F05DC008C08230910529F183309105B4
:1003C00009F055C037C060E070E0CB0155DF1092F6
:1003D0005F0180E090E04BC0C0915F01C11106C099
:1003E00060E070E886EF93E447DF07C0C13029F48E
:1003F00060E070EC82E094E43FDFCF5FC0935F0188
:1004000081E090E034C0C0915F01C11106C060E09E
:1004100070E882E993E430DF07C0C13029F460E07E
:1004200070E882E893E428DFCF5FC0935F0182E049
:1004300090E01DC080915F01811108C060E070E014
:1004400084EC93E419DF83E090E011C0813041F443
:1004500060E070E08CED93E40FDF83E090E007C094
:1004600060E070EC82E094E407DF83E090E0CF91FD
:10047000089580E4809390008BE08093910060E089
:1004800070E0CB01F9CE089590E0982F8827860F71
:10049000911D40E158E055B99C0121703327286037
:1004A00096958795246025B94150A9F78AE085B9CA
:1004B00015B8089584E085B982E085B90895CF9391
:1004C000DF93EC01F7DFC830D10508F084C0FE01EE
:1004D000EA5BFF4F9FC480916C01882329F06FE78E
:1004E000D3DF81E090E079C06FE780916401CCDFD9
:1004F00081E090E072C080916D01882329F06FEB5C
:10050000C3DF82E090E069C06FEB80916501BCDFE2
:1005100082E090E062C080916E01882329F06FED47
:10052000B3DF83E090E059C06FED80916601ACDFEE
:1005300083E090E052C080916F01882329F06FEE34
:10054000A3DF84E090E049C06FEE809167019CDFFB
:1005500084E090E042C080917001882329F067EF29
:1005600093DF85E090E039C067EF809168018CDF10
:1005700085E090E032C080917101882329F06BEF13
:1005800083DF86E090E029C06BEF809169017CDF1A
:1005900086E090E022C080917201882329F06DEFFF
:1005A00073DF87E090E019C06DEF80916A016CDF26
:1005B00087E090E012C080917301882329F06EEFEC
:1005C00063DF80E090E009C06EEF80916B015CDF3B
:1005D00080E090E002C080E090E0DF91CF9108954C
:1005E000982F9623D1F1861769F1423069F1433093
:1005F00011F090E032C080FF04C061FD27C091E09F
:100600002CC0962F917060FD05C0282F262B20FF4F
:1006100005C023C081FD1CC091E01FC06695869572
:10062000962F982B90FFFACF80FF04C061FD12C077
:1006300091E013C0962F917060FF0FC081FD0CC038
:1006400091E00BC0942F09C091E007C092E005C073
:1006500092E003C092E001C092E0892F08950F93C9
:100660001F93CF93DF9326B1217036B146B1873007
:10067000910508F043C0FC01E25BFF4FCBC32111A1
:1006800040C181E080935E0152C010925E0187E01C
:1006900080935D0180915C0180935B0110925A010F
:1006A00091E090935901833021F487E080936B01AE
:1006B00058C0823021F488E180936B0152C080E100
:1006C00080936B014EC042FF0DC131C031FF2FC07E
:1006D000222309F46CC045C0211119C181E0809327
:1006E0005E01E4C010925E0127C0211115C181E0B6
:1006F00080935E01E9C010925E011EC083E080938A
:100700005C011AC08230910509F451C03CF4009795
:1007100071F08130910509F004C123C08330910547
:1007200009F4C4C08430910509F0FBC0CDC08091AC
:100730005901813009F0D9C0ECE6F1E0A4E6B1E05E
:1007400084E791E011921D92E817F907D9F7E7DCE9
:100750006AE071E081E006DD1092590180E090E0EE
:10076000E0C080915D0190E0FC01EC59FE4F2081DA
:1007700022231CF410925A0112C020FF04C031E061
:1007800030935A0104C030915A01332341F0FC01E7
:10079000EC59FE4F220F208381E090E0C2C0FC01A3
:1007A000EC59FE4F2695208381E090E0BAC0C091BD
:1007B0005D01C730F9F486E080935D0180916B01A3
:1007C0008093730180915C01833031F487E08093E2
:1007D0006A0182E090E0A5C0823031F488E1809324
:1007E0006A0182E090E09DC080E180936A0182E02E
:1007F00090E097C0C1110CC040915B016091640111
:1008000080916B01EDDE811173C084E090E089C0BE
:100810000C2F10E0F801EC59FE4FD081F801E4599B
:10082000FE4F40915B016D2F8181DADE8823D1F18B
:10083000F801E459FE4FD083EFEFEC0FE0935D0138
:10084000E63019F480935B010FC0E33048F0833049
:1008500020F082E080935B0115C080935B0104C0AF
:1008600081E080935B0116C080915B01833041F48D
:10087000F0E0EC59FE4F88E3808382E090E051C0C5
:10088000823041F4F0E0EC59FE4F88E1808382E051
:1008900090E047C0F0E0EC59FE4F88E0808382E0B2
:1008A00090E03FC0179A84E090E03BC080915901EE
:1008B000813009F534DC6AE171E081E053DC1092AB
:1008C000590183E090E02DC0809159018130B1F44D
:1008D00026DC63E271E081E045DC1092590184E09E
:1008E00090E01FC086E090E01CC080E090E019C05E
:1008F00083E090E016C083E090E013C084E090E0D5
:1009000010C080915E01882309F4DDCEBECE8091B7
:100910005E01882359F2E6CE80915E018823A1F220
:10092000EACEDF91CF911F910F910895CF93DF937E
:1009300000D000D000D0CDB7DEB78FEF81B912B8AC
:1009400084B915B817B888B98AB91BB80F2EF4E660
:10095000EF2EF02DF12C00E010E052E040E030E00E
:1009600020E004C0E62EF72E082F192F652F742FD4
:10097000832F922F2E2D3F2D402F512F29D25E2DC8
:100980004F2D302F212F611571058105910551F7EC
:1009900068EC70E080E090E02E2D3F2D402F512F2D
:1009A00017D229013A0162E070E080E090E02E2D3C
:1009B0003F2D402F512F0CD249015A0164E670E0BF
:1009C00080E090E02E2D3F2D402F512F01D286E068
:1009D000E4E0F1E0DE01119601900D928A95E1F7D5
:1009E000EEE4F1E06FEF60834182528263827482B1
:1009F000458256826782708687EA91E09287818776
:100A0000E3E4F1E0608381829282A382B4828582F2
:100A10009682A782B0868FE592E092878187E8E38D
:100A2000F1E06083218332834383548325833683BB
:100A3000478350878FE293E0928781871ADD6E2D7E
:100A40007F2D802F912FA7DBB7DB74DB6CE271E089
:100A500081E088DB2FDD2EDD7E0187E0E80EF11CD2
:100A6000DE0111966D01F601019111916F01D8011E
:100A700015964D915D916D917C91189711968D9180
:100A80009D910D90BC91A02D481759076A077B07CF
:100A900080F0F80180810184F285E02D082E000CA1
:100AA000990B0995D8018C93F8011582168217824B
:100AB0001086F80185819681A781B0850196A11DD8
:100AC000B11D85839683A783B087CE14DF0459F6C2
:100AD000809178018823E1F310927801C1CF9CD0F6
:100AE00008F481E008950CD0D2C0CAD040F0C1D043
:100AF00030F021F45F3F19F0B3C05111FCC0B6C013
:100B0000D7D098F39923C9F35523B1F3951B550B0F
:100B1000BB27AA2762177307840738F09F5F5F4FD0
:100B2000220F331F441FAA1FA9F333D00E2E3AF011
:100B3000E0E830D091505040E695001CCAF729D02B
:100B4000FE2F27D0660F771F881FBB1F261737077A
:100B50004807AB07B0E809F0BB0B802DBF01FF27AA
:100B600093585F4F2AF09E3F510568F079C0C3C08B
:100B70005F3FECF3983EDCF3869577956795B795E4
:100B8000F7959F5FC9F7880F911D9695879597F9FF
:100B90000895E1E0660F771F881FBB1F6217730778
:100BA0008407BA0720F0621B730B840BBA0BEE1F8D
:100BB00088F7E095089504D06894B1119CC0089519
:100BC0007FD088F09F5790F0B92F9927B751A0F0A8
:100BD000D1F0660F771F881F991F1AF0BA95C9F7D1
:100BE00012C0B13081F086D0B1E0089583C0672F84
:100BF000782F8827B85F39F0B93FCCF38695779581
:100C00006795B395D9F73EF4909580957095619569
:100C10007F4F8F4F9F4F0895990F0008550FAA0BD4
:100C2000E0E8FEEF16161706E807F907C0F01216FF
:100C30001306E407F50798F0621B730B840B950B02
:100C400039F40A2661F0232B242B252B21F4089557
:100C50000A2609F4A140A6958FEF811D811D0895F4
:100C600097F99F6780E870E060E008959FEF80EC5F
:100C7000089500240A941616170618060906089502
:100C800000240A9412161306140605060895092E68
:100C90000394000C11F4882352F0BB0F40F4BF2BD7
:100CA00011F460FF04C06F5F7F4F8F4F9F4F089517
:100CB00057FD9058440F551F59F05F3F71F047950D
:100CC000880F97FB991F61F09F3F79F087950895F2
:100CD000121613061406551FF2CF4695F1DF08C011
:100CE000161617061806991FF1CF8695710561052E
:100CF00008940895E894BB2766277727CB0197F9D6
:100D000008958ADF08F48FEF08950BD0C0CFB1DFCC
:100D100028F0B6DF18F0952309F0A2CFA7CF112451
:100D2000EACFC6DFA0F3959FD1F3950F50E0551F92
:100D3000629FF001729FBB27F00DB11D639FAA2730
:100D4000F00DB11DAA1F649F6627B00DA11D661F7F
:100D5000829F2227B00DA11D621F739FB00DA11DA0
:100D6000621F839FA00D611D221F749F3327A00D5A
:100D7000611D231F849F600D211D822F762F6A2FF6
:100D800011249F5750408AF0E1F088234AF0EE0F7B
:100D9000FF1FBB1F661F771F881F91505040A9F788
:100DA0009E3F510570F05CCFA6CF5F3FECF3983EBD
:100DB000DCF3869577956795B795F795E7959F5FEF
:100DC000C1F7FE2B880F911D9695879597F9089589
:100DD000A1E21A2EAA1BBB1BFD010DC0AA1FBB1F3F
:100DE000EE1FFF1FA217B307E407F50720F0A21BB1
:100DF000B30BE40BF50B661F771F881F991F1A941E
:100E000069F760957095809590959B01AC01BD0147
:100E1000CF010895EE0FFF1F0024001C0BBE0790AA
:0A0E2000F691E02D0994F894FFCF3D
:100E2A00010000004E0143013801506C61792F44E2
:100E3A006966666963756C747900594F552057491C
:100E4A004E2100594F55204C4F534500505245539F
:080E5A0053205354415254008F
:00000001FF
