S0130000537461636B657247616D652E73726563CA
S113000045C0000060C000005EC000005CC000008D
S11300105AC0000058C0000056C0000054C0000080
S113002052C0000050C000004EC000004CC0000090
S11300304AC00000D6C0000046C0000044C0000012
S113004042C0000040C000003EC000003CC00000B0
S11300503AC0000038C0000036C0000034C00000C0
S113006032C0000030C000002EC000002CC00000D0
S11300702AC0000028C0000026C0000024C00000E0
S113008022C0000020C000001EC0000011241FBEBA
S1130090CFEFD0E4DEBFCDBF11E0A0E0B1E0ECE2F1
S11300A0F8E000E00BBF02C007900D92A431B10745
S11300B0D9F721E0A4E1B1E001C01D92A832B20752
S11300C0E1F7A5D1B1C39CCF181619065CF00895C9
S11300D0000021503109E1F74F5F5F4F8417950706
S11300E019F4089540E050E027E033E0F1CF109890
S11300F08BB9119A0000119882E090E0E5CF089541
S113010081E0F5CF0895813118F48158F0CF089536
S11301108155EDCF089584E690E0D6DF88E3E7DFEC
S113012086E0E5DF8FE0E3DF81E0E1DF8AE090E075
S1130130CBCF0895109A8BB9119A0000119881E0E1
S113014090E0C2CF08950F931F93CF93DF93182F9E
S1130150EB01D6DF8881882351F001E0010F812F64
S1130160D2DF8991E7DF102F88818111F6CFDF91EB
S1130170CF911F910F91089560930401709305012D
S113018080930601909307016093230170932401E7
S1130190809325019093260108958BE0809381003C
S11301A08DE790E0909389008093880082E08093AB
S11301B06F00109285001092840080910401909148
S11301C00501A0910601B09107018093230190934A
S11301D02401A0932501B09326018FB780688FBFB7
S11301E008951F920F920FB60F9211248F939F932D
S11301F0AF93BF938091230190912401A091250195
S1130200B09126010197A109B1098093230190932C
S11302102401A0932501B0932601892B8A2B8B2BD3
S113022099F481E080932701809104019091050164
S1130230A0910601B09107018093230190932401BA
S1130240A0932501B0932601BF91AF919F918F9107
S11302500F900FBE0F901F901895CF92DF92EF92E0
S1130260FF926B017C019B01AC0160911F017091B5
S11302702001809121019091220120D1882309F449
S113028052C020E030E0A901C701B60117D18111A5
S113029006C0E1E9F0E080818870808305C0E1E96F
S11302A0F0E080818360808328E539E344E75FE3FD
S11302B0C701B60103D188233CF48FEF9FEF9093DD
S11302C099008093980023C020E034E244EF56E480
S11302D0C701B60142D218162CF41092990010925C
S11302E0980015C020E030E040E053E4C701B601B7
S11302F038D29B01AC0160E074E284EF9AE4E2D06E
S113030049D16150710970939900609398001092DB
S1130310950010929400C0921F01D0922001E092A7
S11303202101F0922201FF90EF90DF90CF90089589
S113033026B136B1009729F420FF13C031FF30C035
S113034009C08130910569F08230910549F1009727
S113035009F044C060E070E0CB017FDF80E090E012
S11303600895609100017091010180E090E043D113
S113037074DF809127018823E1F3109227016091B3
S113038002017091030180E090E035D166DF809135
S113039027018823E1F31092270180E090E008957B
S11303A0609100017091010180E090E024D155DF5B
S11303B0809127018823E1F31092270160910201C3
S11303C07091030180E090E016D147DF809127010E
S11303D08823E1F31092270180E090E0089580E4FF
S11303E0809390008BE08093910060E070E0CB01FB
S11303F034CF089528E038E035B9982F91709C6087
S1130400869595B92150C1F78AE085B908958FEF93
S113041081B912B884B915B817B888B98AB91BB8A4
S1130420E4E1F1E0808381E090E0A0E0B0E081834A
S11304309283A383B48385839683A783B08788E953
S113044091E092878187CBDF62E370E080E090E007
S113045093DEA3DE60DE68E071E081E074DE80EFAD
S1130460C9DFC4E1D1E04D815E816F8178858981E6
S11304709A81AB81BC81481759076A077B0760F0F2
S11304808881E985FA85082E000C990B09958883E3
S11304901D821E821F8218868D819E81AF81B88540
S11304A00196A11DB11D8D839E83AF83B887809172
S11304B027018823E1F310922701D5CFD9D008F47E
S11304C081E008950CD00FC107D140F0FED030F088
S11304D021F45F3F19F0F0C0511139C1F3C014D1B8
S11304E098F39923C9F35523B1F3951B550BBB27F7
S11304F0AA2762177307840738F09F5F5F4F220FA4
S1130500331F441FAA1FA9F333D00E2E3AF0E0E89C
S113051030D091505040E695001CCAF729D0FE2FE8
S113052027D0660F771F881FBB1F2617370748077A
S1130530AB07B0E809F0BB0B802DBF01FF27935830
S11305405F4F2AF09E3F510568F0B6C000C15F3F7F
S1130550ECF3983EDCF3869577956795B795F79518
S11305609F5FC9F7880F911D9695879597F9089510
S1130570E1E0660F771F881FBB1F621773078407AC
S1130580BA0720F0621B730B840BBA0BEE1F88F7BB
S1130590E095089504D06894B111D9C00895BCD0F1
S11305A088F09F5790F0B92F9927B751A0F0D1F058
S11305B0660F771F881F991F1AF0BA95C9F712C0E2
S11305C0B13081F0C3D0B1E00895C0C0672F782F57
S11305D08827B85F39F0B93FCCF38695779567954E
S11305E0B395D9F73EF490958095709561957F4FBA
S11305F08F4F9F4F0895E89409C097FB3EF4909560
S11306008095709561957F4F8F4F9F4F9923A9F0E7
S1130610F92F96E9BB279395F69587957795679576
S1130620B795F111F8CFFAF4BB0F11F460FF1BC0BA
S11306306F5F7F4F8F4F9F4F16C0882311F096E94D
S113064011C0772321F09EE8872F762F05C06623FB
S113065071F096E8862F70E060E02AF09A95660FB4
S1130660771F881FDAF7880F9695879597F908956D
S1130670990F0008550FAA0BE0E8FEEF16161706AF
S1130680E807F907C0F012161306E407F50798F017
S1130690621B730B840B950B39F40A2661F0232B30
S11306A0242B252B21F408950A2609F4A140A695AC
S11306B08FEF811D811D089597F99F6780E870E091
S11306C060E008959FEF80EC089500240A941616C4
S11306D0170618060906089500240A94121613062C
S11306E0140605060895092E0394000C11F48823BA
S11306F052F0BB0F40F4BF2B11F460FF04C06F5FD6
S11307007F4F8F4F9F4F089557FD9058440F551FAB
S113071059F05F3F71F04795880F97FB991F61F07F
S11307209F3F79F087950895121613061406551FF6
S1130730F2CF4695F1DF08C0161617061806991F62
S1130740F1CF86957105610508940895E894BB2757
S113075066277727CB0197F908958ADF08F48FEF8E
S113076008950BD0C0CFB1DF28F0B6DF18F0952381
S113077009F0A2CFA7CF1124EACFC6DFA0F3959F3B
S1130780D1F3950F50E0551F629FF001729FBB2774
S1130790F00DB11D639FAA27F00DB11DAA1F649F20
S11307A06627B00DA11D661F829F2227B00DA11DD3
S11307B0621F739FB00DA11D621F839FA00D611D59
S11307C0221F749F3327A00D611D231F849F600D7A
S11307D0211D822F762F6A2F11249F5750408AF0B3
S11307E0E1F088234AF0EE0FFF1FBB1F661F771F3F
S11307F0881F91505040A9F79E3F510570F05CCF7F
S1130800A6CF5F3FECF3983EDCF38695779567952A
S1130810B795F795E7959F5FC1F7FE2B880F911D5C
S10F08209695879597F90895F894FFCFFA
S113082CED010B0201000000505245535320535468
S107083C41525400CD
S9030000FC
