S0130000537461636B657247616D652E73726563CA
S11300004DC0000068C0000066C0000064C000006D
S113001062C0000060C000005EC000005CC0000060
S11300205AC0000058C0000056C0000054C0000070
S113003052C0000081C100004EC000004CC000004E
S11300404AC0000048C0000046C0000044C0000090
S113005042C0000040C000003EC000003CC00000A0
S11300603AC0000038C0000036C0000034C00000B0
S113007032C0000030C000002EC000002CC00000C0
S11300802AC0000028C0000026C00000E302F502D8
S1130090070319032B033D034F03610311241FBE00
S11300A0CFEFD0E4DEBFCDBF11E0A0E0B1E0E8E4E3
S11300B0FCE000E00BBF02C007900D92A232B10732
S11300C0D9F721E0A2E2B1E001C01D92A036B20747
S11300D0E1F70ED3B7C594CF81309105E9F08230B2
S11300E09105E1F10097E9F4309B0DC010924501B0
S11300F0109244011092430187E090E090934C01E8
S113010080934B012BC03299D3C0E0E0F1E0ABE423
S1130110B1E080E191E018C03199F7CF30994FC038
S11301201DC08230910509F44AC03CF4009769F37C
S11301308130910509F0CAC011C0853091050CF0D9
S1130140C5C080E090E00895119211921D921D9215
S11301508E179F07C9F780E090E0089580914501CC
S113016090E0FC01EE0FFF1FE55BFE4F2081318123
S113017027FF03C01092430116C020FF04C041E0D2
S11301804093430104C040914301442361F0880F2C
S1130190991FFC01E55BFE4F220F331F318320833F
S11301A081E090E00895880F991FFC01E55BFE4F04
S11301B0369527953183208381E090E00895E0917E
S11301C04501E1110EC081E08093450180914B010E
S11301D090914C01909301018093000182E090E0A2
S11301E00895E73069F49091590180910C019813B6
S11301F062C080914401811161C084E090E008955F
S11302008E2F90E0DC01AA0FBB1FA55BBE4F2C9183
S113021011964C91DC01AA0FBB1FA250BF4F3C9119
S113022032134FC030914401332309F44DC0880F79
S1130230991FDC01A050BF4F2C9311964C93EF5F94
S1130240E0934501E23060F0E53030F4333040F0C3
S113025082E08093440114C081E0809344011CC077
S1130260333061F4F0E0EE0FFF1FE55BFE4F88E3EF
S113027090E09183808382E090E00895323061F4CD
S1130280F0E0EE0FFF1FE55BFE4F88E190E0918305
S1130290808382E090E00895F0E0EE0FFF1FE55BBD
S11302A0FE4F88E090E09183808382E090E008959F
S11302B086E090E0089584E090E0089583E090E083
S11302C0089584E090E0089584E090E008956093B8
S11302D018017093190180931A0190931B01609384
S11302E05B0170935C0180935D0190935E010895BE
S11302F08BE0809381008DE790E090938900809358
S1130300880082E080936F00109285001092840030
S11303108091180190911901A0911A01B0911B01CB
S113032080935B0190935C01A0935D01B0935E01A7
S11303308FB780688FBF08951F920F920FB60F92E8
S113034011248F939F93AF93BF9380915B019091FE
S11303505C01A0915D01B0915E010197A109B10911
S113036080935B0190935C01A0935D01B0935E0167
S1130370892B8A2B8B2B99F481E080935F018091E8
S1130380180190911901A0911A01B0911B01809359
S11303905B0190935C01A0935D01B0935E01BF91FA
S11303A0AF919F918F910F900FBE0F901F90189552
S11303B0CF92DF92EF92FF926B017C019B01AC0123
S11303C060914701709148018091490190914A01DF
S11303D058D2882309F452C020E030E0A901C701B3
S11303E0B6014FD2811106C0E1E9F0E08081887046
S11303F0808305C0E1E9F0E080818360808328E5A3
S113040039E344E75FE3C701B6013BD288233CF4F8
S11304108FEF9FEF909399008093980023C020E082
S113042034E244EF56E4C701B6017AD318162CF42B
S1130430109299001092980015C020E030E040E03E
S113044053E4C701B60170D39B01AC0160E074E2D0
S113045084EF9AE41AD281D26150710970939900A1
S1130460609398001092950010929400C0924701F6
S1130470D0924801E0924901F0924A01FF90EF9036
S1130480DF90CF900895CF9326B136B18130910596
S113049051F08230910589F0892BA1F420FF26C008
S11304A031FF41C01AC031E020E080914601823022
S11304B009F430E0832F922F07C0809146018230E7
S11304C091F50BC080E090E08130910579F08230A5
S11304D0910549F1009709F042C060E070E0CB015A
S11304E067DF1092460180E090E039C0C091460178
S11304F0C11109C0609114017091150180E090E070
S11305005DD256DF0AC0C13041F46091160170918A
S1130510170180E090E052D24BDFCF5FC0934601D9
S113052081E090E01CC0C0914601C11109C06091F6
S113053010017091110180E090E040D239DF0AC0CF
S1130540C13041F4609112017091130180E090E098
S113055035D22EDFCF5FC093460182E090E0CF9189
S1130560089580E4809390008BE08093910060E094
S113057070E0CB011DCF089590E0982F8827860F57
S1130580911D40E158E055B99C0121703327286042
S113059096958795246025B94150A9F78AE085B9D5
S11305A015B8089584E085B982E085B90895CF939C
S11305B0DF93EC01F7DFC830D10508F094C0FE01E9
S11305C0EA5BFF4F36C380910001909101010097CF
S11305D029F06FE7D1DF81E090E087C06FE7809179
S11305E04B01CADF81E090E080C0809102019091CC
S11305F00301009729F06FEBBFDF82E090E075C044
S11306006FEB80914D01B8DF82E090E06EC0809185
S1130610040190910501009729F06FEDADDF83E0AF
S113062090E063C06FED80914F01A6DF83E090E01E
S11306305CC08091060190910701009729F06FEE4C
S11306409BDF84E090E051C06FEE8091510194DF14
S113065084E090E04AC080910801909109010097DC
S113066029F067EF89DF85E090E03FC067EF809174
S1130670530182DF85E090E038C080910A019091B7
S11306800B01009729F06BEF77DF86E090E02DC037
S11306906BEF8091550170DF86E090E026C0809179
S11306A00C0190910D01009729F06DEF65DF87E053
S11306B090E01BC06DEF809157015EDF87E090E012
S11306C014C080910E0190910F01009729F06EEFF4
S11306D053DF80E090E009C06EEF809159014CDF58
S11306E080E090E002C080E090E0DF91CF91089537
S11306F0CF93DF9300D000D000D0CDB7DEB78FEF1B
S113070081B912B884B915B817B888B98AB91BB8B1
S11307100F2EF8ECEF2EF02DF12C00E010E052E05B
S113072040E030E020E004C0E62EF72E082F192F19
S1130730652F742F832F922F2E2D3F2D402F512F55
S113074056D25E2D4F2D302F212F61157105810555
S1130750910551F768EC70E080E090E02E2D3F2D7C
S1130760402F512F44D249015A0162E070E080E0E9
S113077090E02E2D3F2D402F512F39D286E0ECE111
S1130780F1E0DE01119601900D928A95E1F7E8E31C
S1130790F1E08FEF808381829282A382B48285828A
S11307A09682A782B08663E472E072876187EDE285
S11307B0F1E080832183328343835483258336830A
S11307C04783508727ED32E032872187E2E2F1E068
S11307D0808381829282A382B48285829682A78258
S11307E0B0868CE690E092878187BBDE6E2D7F2DEC
S11307F0802F912F6CDD7CDDD5DED4DE7E0187E099
S1130800E80EF11CDE0111966D01F60101911191C2
S11308106F01D80115964D915D916D917C9118975A
S113082011968D919D910D90BC91A02D481759075B
S11308306A077B0780F0F80180810184F285E02D4E
S1130840082E000C990B0995D8018C93F801158298
S1130850168217821086F80185819681A781B0855A
S11308600196A11DB11D85839683A783B087CE14FD
S1130870DF0459F680915F018823E1F310925F0150
S1130880C1CFD9D008F481E008950CD00FC107D1AD
S113089040F0FED030F021F45F3F19F0F0C0511168
S11308A039C1F3C014D198F39923C9F35523B1F393
S11308B0951B550BBB27AA2762177307840738F0CB
S11308C09F5F5F4F220F331F441FAA1FA9F333D02A
S11308D00E2E3AF0E0E830D091505040E695001CDE
S11308E0CAF729D0FE2F27D0660F771F881FBB1F9A
S11308F0261737074807AB07B0E809F0BB0B802D74
S1130900BF01FF2793585F4F2AF09E3F510568F0BF
S1130910B6C000C15F3FECF3983EDCF38695779553
S11309206795B795F7959F5FC9F7880F911D9695C1
S1130930879597F90895E1E0660F771F881FBB1F1D
S1130940621773078407BA0720F0621B730B840BCA
S1130950BA0BEE1F88F7E095089504D06894B1119E
S1130960D9C00895BCD088F09F5790F0B92F99272B
S1130970B751A0F0D1F0660F771F881F991F1AF0A6
S1130980BA95C9F712C0B13081F0C3D0B1E008956F
S1130990C0C0672F782F8827B85F39F0B93FCCF3F0
S11309A0869577956795B395D9F73EF4909580959C
S11309B0709561957F4F8F4F9F4F0895E89409C0BC
S11309C097FB3EF490958095709561957F4F8F4F7E
S11309D09F4F9923A9F0F92F96E9BB279395F69594
S11309E0879577956795B795F111F8CFFAF4BB0F12
S11309F011F460FF1BC06F5F7F4F8F4F9F4F16C076
S1130A00882311F096E911C0772321F09EE8872FFF
S1130A10762F05C0662371F096E8862F70E060E0BB
S1130A202AF09A95660F771F881FDAF7880F969534
S1130A30879597F90895990F0008550FAA0BE0E8D8
S1130A40FEEF16161706E807F907C0F0121613068C
S1130A50E407F50798F0621B730B840B950B39F4CC
S1130A600A2661F0232B242B252B21F408950A2632
S1130A7009F4A140A6958FEF811D811D089597F972
S1130A809F6780E870E060E008959FEF80EC089530
S1130A9000240A9416161706180609060895002459
S1130AA00A9412161306140605060895092E0394D3
S1130AB0000C11F4882352F0BB0F40F4BF2B11F447
S1130AC060FF04C06F5F7F4F8F4F9F4F089557FDA6
S1130AD09058440F551F59F05F3F71F04795880FA8
S1130AE097FB991F61F09F3F79F08795089512163F
S1130AF013061406551FF2CF4695F1DF08C01616EB
S1130B0017061806991FF1CF86957105610508949B
S1130B100895E894BB2766277727CB0197F90895B2
S1130B208ADF08F48FEF08950BD0C0CFB1DF28F02F
S1130B30B6DF18F0952309F0A2CFA7CF1124EACF8E
S1130B40C6DFA0F3959FD1F3950F50E0551F629F28
S1130B50F001729FBB27F00DB11D639FAA27F00D12
S1130B60B11DAA1F649F6627B00DA11D661F829F39
S1130B702227B00DA11D621F739FB00DA11D621F1E
S1130B80839FA00D611D221F749F3327A00D611D3B
S1130B90231F849F600D211D822F762F6A2F11241D
S1130BA09F5750408AF0E1F088234AF0EE0FFF1F70
S1130BB0BB1F661F771F881F91505040A9F79E3FA7
S1130BC0510570F05CCFA6CF5F3FECF3983EDCF3A9
S1130BD0869577956795B795F795E7959F5FC1F7E4
S1130BE0FE2B880F911D9695879597F90895A1E29C
S1130BF01A2EAA1BBB1BFD010DC0AA1FBB1FEE1F93
S1130C00FF1FA217B307E407F50720F0A21BB30BDD
S1130C10E40BF50B661F771F881F991F1A9469F759
S1130C2060957095809590959B01AC01BD01CF01B5
S1130C300895EE0FFF1F0024001C0BBE0790F691D1
S10B0C40E02D0994F894FFCFA4
S1130C480000000000000000000018001800FF0069
S1130C5825010501ED010B020100000038012D01F9
S1050C68220163
S9030000FC
