:1000000054C000006FC000006DC000006BC0000055
:1000100069C0000067C0000065C0000063C0000048
:1000200061C000005FC000005DC000005BC0000058
:1000300059C00000E5C0000055C0000053C00000DA
:1000400051C000004FC000004DC000004BC0000078
:1000500049C0000047C0000045C0000043C0000088
:1000600041C000003FC000003DC000003BC0000098
:1000700039C0000037C0000035C0000033C00000A8
:1000800031C000002FC000002DC0000069027902BD
:1000900089029902A902B902C902D902DF034B04FD
:1000A000B00451045A04D105630411241FBECFEFDC
:1000B000D0E4DEBFCDBF11E0A0E0B1E0E6EBF0E1BF
:1000C00000E00BBF02C007900D92A43FB107D9F723
:1000D00022E0A4EFB1E001C01D92AC33B207E1F71A
:1000E00063D5E7C78DCF181619065CF00895000098
:1000F00021503109E1F74F5F5F4F8417950719F4DD
:10010000089540E050E027E033E0F1CF10988BB93C
:10011000119A0000119882E090E0E5CF089581E007
:10012000F5CF0895813118F48158F0CF08958155A5
:10013000EDCF089584E690E0D6DF88E3E7DF86E040
:10014000E5DF8FE0E3DF81E0E1DF8AE090E0CBCF25
:100150000895109A8BB9119A0000119881E090E0EF
:10016000C2CF08950F931F93CF93DF93182FEB0106
:10017000D6DF8881882351F001E0010F812FD2DF83
:100180008991E7DF102F88818111F6CFDF91CF9120
:100190001F910F9108956093000170930101809366
:1001A00002019093030160932702709328028093C9
:1001B000290290932A0208958BE0809381008DE7B5
:1001C00090E0909389008093880082E080936F0094
:1001D000109285001092840080910001909101019D
:1001E000A0910201B091030180932702909328020D
:1001F000A0932902B0932A028FB780688FBF089519
:100200001F920F920FB60F9211248F939F93AF936B
:10021000BF938091270290912802A0912902B0916A
:100220002A020197A109B10980932702909328021D
:10023000A0932902B0932A02892B8A2B8B2B99F445
:1002400081E080932B028091000190910101A091A7
:100250000201B09103018093270290932802A0939A
:100260002902B0932A02BF91AF919F918F910F9075
:100270000FBE0F901F901895CF92DF92EF92FF92D2
:100280006B017C019B01AC01609112027091130221
:10029000809114029091150268D5882309F452C008
:1002A00020E030E0A901C701B6015FD5811106C089
:1002B000E1E9F0E080818870808305C0E1E9F0E049
:1002C00080818360808328E539E344E75FE3C701E9
:1002D000B6014BD588233CF48FEF9FEF90939900A4
:1002E0008093980023C020E034E244EF56E4C70135
:1002F000B6014DD618162CF4109299001092980061
:1003000015C020E030E040E053E4C701B60143D619
:100310009B01AC0160E074E284EF9AE42AD591D5A8
:100320006150710970939900609398001092950044
:1003300010929400C0921202D0921302E092140222
:10034000F0921502FF90EF90DF90CF9008951F93E9
:10035000CF93DF93EC0181309105D9F08230910584
:1003600011F1892B29F580911602882399F18130AA
:1003700029F0823031F0833049F406C0C1E0D0E08A
:1003800005C0C2E0D0E002C0C3E0D0E01092160287
:1003900011C091E080E020911102223009F490E038
:1003A000C92FD82F07C080911102843089F512C05F
:1003B000C0E0D0E0C130D105B1F024F4209709F0BD
:1003C00051C008C0C230D10519F1C330D10509F4BC
:1003D00044C048C060E070E0CB014EDF10921102D3
:1003E000C0E0D0E03FC010911102111106C060E0E2
:1003F00070E882E993E440DF07C0113029F460E03F
:1004000070E882E893E438DF1F5F109311022AC07E
:10041000C0911102C11106C060E070E88EEA93E459
:100420002BDF15C0C13031F460E070E08CED93E457
:1004300023DF0DC0C23031F460E070E886EF93E452
:100440001BDF05C060E070EC82E094E415DFCF5F55
:10045000C0931102C2E0D0E005C061E77DE98EEAF9
:1004600093E40ADFCE01DF91CF911F91089580E4DC
:10047000809390008BE08093910060E070E0CB016E
:10048000FBCE089590E0982F8827860F911D40E1BC
:1004900058E055B99C0121703327286096958795BF
:1004A000246025B94150A9F78AE085B915B80895A7
:1004B00084E085B982E085B90895CF93DF93EC019C
:1004C000F7DFC830D10508F084C0FE01EA5BFF4FBA
:1004D000E7C580911F02882329F06FE7D3DF81E011
:1004E00090E079C06FE780911702CCDF81E090E067
:1004F00072C080912002882329F06FEBC3DF82E075
:1005000090E069C06FEB80911802BCDF82E090E060
:1005100062C080912102882329F06FEDB3DF83E070
:1005200090E059C06FED80911902ACDF83E090E05C
:1005300052C080912202882329F06FEEA3DF84E06D
:1005400090E049C06FEE80911A029CDF84E090E059
:1005500042C080912302882329F067EF93DF85E072
:1005600090E039C067EF80911B028CDF85E090E05E
:1005700032C080912402882329F06BEF83DF86E06C
:1005800090E029C06BEF80911C027CDF86E090E058
:1005900022C080912502882329F06DEF73DF87E068
:1005A00090E019C06DEF80911D026CDF87E090E054
:1005B00012C080912602882329F06EEF63DF80E06D
:1005C00090E009C06EEF80911E025CDF80E090E059
:1005D00002C080E090E0DF91CF910895413009F4AE
:1005E000CEC0423021F4213009F0D5C090C0211195
:1005F00043C0861305C090E0982F88278260089535
:1006000080FF05C061FDC1C081E094E0089560FDF8
:1006100006C0982F962B90FF07C020E01EC081FDDA
:10062000B7C081E094E0089520E0669586952F5F3D
:10063000962F982B90FFF9CF80FF0FC061FD02C06D
:1006400031E001C032E0862390E0285F02C0880FCD
:10065000991F2A95E2F7832B089581FD02C031E0AE
:1006600001C032E0862390E0285F02C0880F991F06
:100670002A95E2F7832B0895213009F046C08613AE
:1006800005C090E0982F88278260089580FF0BC0F6
:1006900061FD02C021E001C022E0862330E0A90113
:1006A000582BCA01089560FD06C0982F962B90FF25
:1006B0000DC020E019C081FD02C021E001C022E090
:1006C000862330E0A901582BCA01089520E06695E1
:1006D00086952F5F962F982B90FFF9CF60FF04C06F
:1006E00081FD06C031E007C061FD04C031E003C0F8
:1006F00032E001C032E0862390E0285F02C0880F1C
:10070000991F2A95E2F7832B08952230C1F58617A9
:1007100041F0982F962B90FF09C0982F917020E000
:100720000FC090E0982F88278260089520E066959A
:1007300086952F5F962F982B90FFF9CF982F917069
:10074000992331F0873051F461FF0AC032E00DC0C7
:100750008E3041F462FF08C032E007C031E005C0CE
:1007600031E003C031E001C031E0862390E0285F32
:1007700002C0880F991F2A95E2F7832B08958623DC
:1007800090E0982F88278160089582E096E0089590
:1007900082E096E00895222309F42BCFB6CFCF93C1
:1007A0009C0186B1817046B196B1909594702730C6
:1007B000310508F0B7C0F901E25BFF4F71C4811148
:1007C000BAC181E080931002B1C01092100287E09C
:1007D00080930F02C3E0C0930E0210920D0281E0DD
:1007E00080930C028EE080931E0299DC6AE071E037
:1007F00081E0B8DCC093160280910B028330B1F423
:1008000020912D0230912E0240912F025091300202
:1008100068E270E080E090E021D4209332023093CF
:10082000330240933402509335029AC08230B1F4BF
:1008300020912D0230912E0240912F0250913002D2
:100840006CE370E080E090E009D4209332023093B2
:100850003302409334025093350282C020912D021E
:1008600030912E0240912F025091300264E670E0E8
:1008700080E090E0F3D32093320230933302409330
:100880003402509335026CC0992309F44FC081E0C3
:1008900080930C0228C141FF49C0882309F486C017
:1008A0005FC081114EC181E080931002F4C01092AC
:1008B000100241C081114BC181E080931002FDC044
:1008C0001092100238C0811104C081E080931002A0
:1008D00011C0992309F441C181E080930A023DC10E
:1008E0001092100281E080930C0280910A0288230A
:1008F00011F13CC180910A02811135C1EFC020E0A5
:1009000030E010920A0281E080930C0280910B0289
:10091000833021F481E080930B022CC18F5F8093A0
:100920000B0228C181E080930B0205C080910C026C
:10093000813009F0F1C0EFE1F2E0A7E1B2E087E237
:1009400092E011921D92E817F907D9F7E8DB66E209
:1009500071E081E007DC10920C0220E030E021C160
:1009600080910F0290E0FC01E95EFD4F208122237F
:100970001CF410920D0212C020FF04C031E030932D
:100980000D0204C030910D02332341F0FC01E95EF9
:10099000FD4F220F208321E030E003C1FC01E95E1E
:1009A000FD4F2695208321E030E0FBC090910F029F
:1009B000973081F483E08093160286E080930F02E3
:1009C000E7E1F2E087818093260287E0868322E0D8
:1009D00030E0E7C091110AC0909117028091200287
:1009E000892309F09CC024E030E0DBC0292F30E0EF
:1009F000F901E95EFD4F6081F901E15EFD4F818102
:100A0000262F282309F48EC040910E0223E0209364
:100A10001602963039F420E0E1DD80930E029093C7
:100A20002C020FC0943038F021E0D8DD80930E0204
:100A300090932C0206C023E0D1DD80930E029093A8
:100A40002C02E0910F02AE2FB0E0A15EBD4F80916D
:100A50002C028C93E150E0930F0280910E028330C0
:100A600041F4F0E0E95EFD4F88E3808322E030E06E
:100A700098C0823041F4F0E0E95EFD4F88E1808368
:100A800022E030E08EC0F0E0E95EFD4F88E0808338
:100A900022E030E086C080910C02813009F045C030
:100AA0003EDB6AE471E081E05DDB10920C0282E0E3
:100AB0008093160223E030E074C080910C028130F4
:100AC000B9F52DDB6CE671E081E04CDB10920C0295
:100AD00081E08093160224E030E063C080910C0234
:100AE000813009F05EC01BDB80910B02813021F464
:100AF0006EE871E037DB0BC0823029F46FEA71E0F9
:100B000081E030DB04C061ED71E081E02BDB10920D
:100B10000C0226E030E045C020E030E042C023E097
:100B200030E03FC024E030E03CC023E030E039C09A
:100B300024E030E036C080911002882309F4A4CE6E
:100B400044CE80911002882309F4A5CFB0CE8091C5
:100B50001002882309F4B1CFB3CE8091100288230C
:100B600009F4C8CEBDCE9111B9CFCBCE992309F4EB
:100B7000C6CEDCCE2230310509F418CF44F421155D
:100B8000310509F4D8CE2130310559F4E9CE2430AD
:100B9000310509F492CF0CF47ECF2630310509F4EB
:100BA000A2CFC901CF910895CF93DF9300D000D099
:100BB00000D0CDB7DEB78FEF81B912B884B915B8C0
:100BC00017B888B98AB91BB80F2EF4E6EF2EF02DAE
:100BD000F12C00E010E052E040E030E020E004C002
:100BE000E62EF72E082F192F652F742F832F922FA3
:100BF0002E2D3F2D402F512F31D25E2D4F2D302FD6
:100C0000212F611571058105910551F7E0922D02A3
:100C1000F0922E0200932F021093300266E970E0EA
:100C200080E090E02E2D3F2D402F512F17D229012B
:100C30003A0162E070E080E090E02E2D3F2D402FE1
:100C4000512F0CD249015A0164E670E080E090E037
:100C50002E2D3F2D402F512F01D286E0E4E0F1E010
:100C6000DE01119601900D928A95E1F7EFEFF1E028
:100C70008FEF8083418252826382748245825682E2
:100C80006782708667EA71E072876187E4EFF1E05E
:100C9000808381829282A382B48285829682A78297
:100CA000B0866DE572E072876187E1E3F2E08083F0
:100CB000218332834383548325833683478350873C
:100CC0008FEC93E092878187D2DB60912D02709147
:100CD0002E0280912F02909130025DDA6DDA2ADACD
:100CE000E7DBE6DB7E0187E0E80EF11CDE01119612
:100CF0006D01F601019111916F01D80115964D9189
:100D00005D916D917C91189711968D919D910D90AB
:100D1000BC91A02D481759076A077B0780F0F8019E
:100D200080810184F285E02D082E000C990B099535
:100D3000D8018C93F8011582168217821086F8016B
:100D400085819681A781B0850196A11DB11D8583FE
:100D50009683A783B087CE14DF0459F680912B02C7
:100D60008823E1F310922B02C1CF9CD008F481E0DC
:100D700008950CD0D2C0CAD040F0C1D030F021F4D8
:100D80005F3F19F0B3C05111FCC0B6C0D7D098F383
:100D90009923C9F35523B1F3951B550BBB27AA27FC
:100DA00062177307840738F09F5F5F4F220F331F6E
:100DB000441FAA1FA9F333D00E2E3AF0E0E830D03A
:100DC00091505040E695001CCAF729D0FE2F27D03D
:100DD000660F771F881FBB1F261737074807AB070B
:100DE000B0E809F0BB0B802DBF01FF2793585F4F80
:100DF0002AF09E3F510568F079C0C3C05F3FECF315
:100E0000983EDCF3869577956795B795F7959F5F44
:100E1000C9F7880F911D9695879597F90895E1E098
:100E2000660F771F881FBB1F621773078407BA07F7
:100E300020F0621B730B840BBA0BEE1F88F7E09552
:100E4000089504D06894B1119CC008957FD088F0B3
:100E50009F5790F0B92F9927B751A0F0D1F0660FA6
:100E6000771F881F991F1AF0BA95C9F712C0B130C1
:100E700081F086D0B1E0089583C0672F782F88274E
:100E8000B85F39F0B93FCCF3869577956795B39500
:100E9000D9F73EF490958095709561957F4F8F4F6F
:100EA0009F4F0895990F0008550FAA0BE0E8FEEF39
:100EB00016161706E807F907C0F012161306E4071E
:100EC000F50798F0621B730B840B950B39F40A2617
:100ED00061F0232B242B252B21F408950A2609F4F5
:100EE000A140A6958FEF811D811D089597F99F67F9
:100EF00080E870E060E008959FEF80EC08950024A2
:100F00000A941616170618060906089500240A946E
:100F100012161306140605060895092E0394000CF4
:100F200011F4882352F0BB0F40F4BF2B11F460FF83
:100F300004C06F5F7F4F8F4F9F4F089557FD9058AC
:100F4000440F551F59F05F3F71F04795880F97FB8D
:100F5000991F61F09F3F79F0879508951216130647
:100F60001406551FF2CF4695F1DF08C01616170676
:100F70001806991FF1CF86957105610508940895AB
:100F8000E894BB2766277727CB0197F908958ADF76
:100F900008F48FEF08950BD0C0CFB1DF28F0B6DF93
:100FA00018F0952309F0A2CFA7CF1124EACFC6DF0E
:100FB000A0F3959FD1F3950F50E0551F629FF0016C
:100FC000729FBB27F00DB11D639FAA27F00DB11DC5
:100FD000AA1F649F6627B00DA11D661F829F22274E
:100FE000B00DA11D621F739FB00DA11D621F839FD5
:100FF000A00D611D221F749F3327A00D611D231FAB
:10100000849F600D211D822F762F6A2F11249F57F8
:1010100050408AF0E1F088234AF0EE0FFF1FBB1F1B
:10102000661F771F881F91505040A9F79E3F5105BA
:1010300070F05CCFA6CF5F3FECF3983EDCF3869573
:1010400077956795B795F795E7959F5FC1F7FE2B65
:10105000880F911D9695879597F90895A1E21A2E0C
:10106000AA1BBB1BFD010DC0AA1FBB1FEE1FFF1F4C
:10107000A217B307E407F50720F0A21BB30BE40B9C
:10108000F50B661F771F881F991F1A9469F76095E3
:101090007095809590959B01AC01BD01CF0108959D
:1010A000EE0FFF1F0024001C0BBE0790F691E02DF1
:0610B0000994F894FFCF43
:1010B60001000000FF01F401310220202020504CE5
:1010C6004159494E47202020202020202020202042
:1010D600202020202000202020505245535320530A
:1010E600544152542020202020202020202020203F
:1010F6002020202020202020200020202020594FA2
:10110600552057494E212020202020202020202015
:1011160020202020202020202020200020202020E9
:10112600594F55204C4F5345202020202020202069
:1011360020202020202020202020202020002020C9
:10114600446966666963756C74793A2020202020AC
:1011560020202045415359202020202020200020F7
:1011660020446966666963756C74793A202020208C
:101176002020204D454449554D2020202020202068
:10118600002020446966666963756C74793A20208C
:1011960020202020202048415244202020202020AA
:0411A6002020000005
:00000001FF
