S0130000537461636B657247616D652E73726563CA
S11300004DC0000068C0000066C0000064C000006D
S113001062C0000060C000005EC000005CC0000060
S11300205AC0000058C0000056C0000054C0000070
S113003052C0000086C000004EC000004CC000004A
S11300404AC0000048C0000046C0000044C0000090
S113005042C0000040C000003EC000003CC00000A0
S11300603AC0000038C0000036C0000034C00000B0
S113007032C0000030C000002EC000002CC00000C0
S11300802AC0000028C0000026C00000E001F201E0
S11300900402160228023A024C025E0211241FBE18
S11300A0CFEFD0E4DEBFCDBF11E0A0E0B1E0E0E8E7
S11300B0F9E000E00BBF02C007900D92AC32B1072B
S11300C0D9F721E0ACE2B1E001C01D92AC34B20733
S11300D0E1F70BD253C494CF6093280170932901A4
S11300E080932A0190932B016093470170934801F8
S11300F08093490190934A0108958BE08093810095
S11301008DE790E0909389008093880082E080934B
S11301106F001092850010928400809128019091C4
S11301202901A0912A01B0912B018093470190935A
S11301304801A0934901B0934A018FB780688FBFEB
S113014008951F920F920FB60F9211248F939F93CD
S1130150AF93BF938091470190914801A0914901C9
S1130160B0914A010197A109B10980934701909385
S11301704801A0934901B0934A01892B8A2B8B2B08
S113018099F481E080934B01809128019091290199
S1130190A0912A01B0912B018093470190934801CB
S11301A0A0934901B0934A01BF91AF919F918F9160
S11301B00F900FBE0F901F901895CF92DF92EF9281
S11301C0FF926B017C019B01AC0160914301709132
S11301D04401809145019091460111D2882309F48C
S11301E052C020E030E0A901C701B60108D2811154
S11301F006C0E1E9F0E080818870808305C0E1E910
S1130200F0E080818360808328E539E344E75FE39D
S1130210C701B601F4D188233CF48FEF9FEF90938C
S113022099008093980023C020E034E244EF56E420
S1130230C701B60133D318162CF41092990010920A
S1130240980015C020E030E040E053E4C701B60157
S113025029D39B01AC0160E074E284EF9AE4D3D12A
S11302603AD261507109709399006093980010928A
S1130270950010929400C0924301D0924401E09200
S11302804501F0924601FF90EF90DF90CF900895E2
S1130290CF9326B136B18130910551F0823091056A
S11302A089F0892BA1F420FF26C031FF41C01AC078
S11302B031E020E080914201823009F430E0832F64
S11302C0922F07C080914201823091F50BC080E0EB
S11302D090E08130910579F08230910549F10097E1
S11302E009F042C060E070E0CB0167DF1092420188
S11302F080E090E039C0C0914201C11109C0609111
S113030024017091250180E090E016D256DF0AC0E6
S1130310C13041F4609126017091270180E090E0A2
S11303200BD24BDFCF5FC093420181E090E01CC051
S1130330C0914201C11109C0609120017091210155
S113034080E090E0F9D139DF0AC0C13041F4609116
S113035022017091230180E090E0EED12EDFCF5F87
S1130360C093420182E090E0CF91089580E48093AD
S113037090008BE08093910060E070E0CB011DCF92
S1130380089528E038E035B9982F91709C608695DF
S113039095B92150C1F78AE085B9089584E085B9FB
S11303A082E085B90895CF93DF93EC01F7DFF6DFA0
S11303B0C830D10508F094C0FE01EA5BFF4FD5C2F6
S11303C08FE7DFDF8091100190911101009721F0F8
S11303D0D8DF81E090E086C080910001D2DF81E027
S11303E090E080C08FEBCDDF8091120190911301DA
S11303F0009721F0C6DF82E090E074C08091020192
S1130400C0DF82E090E06EC08FEDBBDF809114010D
S113041090911501009721F0B4DF83E090E062C071
S113042080910401AEDF83E090E05CC08FEEA9DF31
S11304308091160190911701009721F0A2DF84E0CA
S113044090E050C0809106019CDF84E090E04AC0B7
S113045087EF97DF8091180190911901009721F09F
S113046090DF85E090E03EC0809108018ADF85E05E
S113047090E038C08BEF85DF80911A0190911B01C9
S1130480009721F07EDF86E090E02CC080910A0185
S113049078DF86E090E026C08DEF73DF80911C0149
S11304A090911D01009721F06CDF87E090E01AC065
S11304B080910C0166DF87E090E014C08EEF61DF6D
S11304C080911E0190911F01009721F05ADF80E076
S11304D090E008C080910E0154DF80E090E002C0FB
S11304E080E090E0DF91CF910895CF93DF9300D027
S11304F000D0CDB7DEB78FEF81B912B884B915B883
S113050017B888B98AB91BB8A7E3B1E0BA83A9833D
S1130510ECE2F1E0FC83EB838C9344E150E060E097
S113052070E011964D935D936D937C93149715969B
S11305304D935D936D937C93189728E431E01A965C
S11305403C932E931997808381E090E0A0E0B0E083
S113055081839283A383B48385839683A783B0879F
S113056083ED91E09287818701DF6AE070E080E0AB
S113057090E0B2DDC2DD12DF7E0185E0E80EF11C01
S1130580DE0111966D01F601019111916F01D801FF
S113059015964D915D916D917C91189711968D9161
S11305A09D910D90BC91A02D481759076A077B07B0
S11305B080F0F80180810184F285E02D082E000C82
S11305C0990B0995D8018C93F8011582168217822C
S11305D01086F80185819681A781B0850196A11DB9
S11305E0B11D85839683A783B087CE14DF0459F6A3
S11305F080914B018823E1F310924B01C1CFD9D0F4
S113060008F481E008950CD00FC107D140F0FED06A
S113061030F021F45F3F19F0F0C0511139C1F3C03B
S113062014D198F39923C9F35523B1F3951B550BB2
S1130630BB27AA2762177307840738F09F5F5F4FB1
S1130640220F331F441FAA1FA9F333D00E2E3AF0F2
S1130650E0E830D091505040E695001CCAF729D00C
S1130660FE2F27D0660F771F881FBB1F261737075B
S11306704807AB07B0E809F0BB0B802DBF01FF278B
S113068093585F4F2AF09E3F510568F0B6C000C1F1
S11306905F3FECF3983EDCF3869577956795B795C5
S11306A0F7959F5FC9F7880F911D9695879597F9E0
S11306B00895E1E0660F771F881FBB1F6217730759
S11306C08407BA0720F0621B730B840BBA0BEE1F6E
S11306D088F7E095089504D06894B111D9C00895BD
S11306E0BCD088F09F5790F0B92F9927B751A0F04C
S11306F0D1F0660F771F881F991F1AF0BA95C9F7B2
S113070012C0B13081F0C3D0B1E00895C0C0672FEA
S1130710782F8827B85F39F0B93FCCF38695779561
S11307206795B395D9F73EF490958095709561954A
S11307307F4F8F4F9F4F0895E89409C097FB3EF475
S113074090958095709561957F4F8F4F9F4F99231A
S1130750A9F0F92F96E9BB279395F6958795779598
S11307606795B795F111F8CFFAF4BB0F11F460FF58
S11307701BC06F5F7F4F8F4F9F4F16C0882311F0B0
S113078096E911C0772321F09EE8872F762F05C0C4
S1130790662371F096E8862F70E060E02AF09A955F
S11307A0660F771F881FDAF7880F9695879597F954
S11307B00895990F0008550FAA0BE0E8FEEF1616EE
S11307C01706E807F907C0F012161306E407F50741
S11307D098F0621B730B840B950B39F40A2661F0B5
S11307E0232B242B252B21F408950A2609F4A14058
S11307F0A6958FEF811D811D089597F99F6780E865
S113080070E060E008959FEF80EC089500240A945E
S11308101616170618060906089500240A941216D7
S11308201306140605060895092E0394000C11F40A
S1130830882352F0BB0F40F4BF2B11F460FF04C0B7
S11308406F5F7F4F8F4F9F4F089557FD9058440F10
S1130850551F59F05F3F71F04795880F97FB991F1B
S113086061F09F3F79F087950895121613061406D8
S1130870551FF2CF4695F1DF08C016161706180665
S1130880991FF1CF86957105610508940895E89440
S1130890BB2766277727CB0197F908958ADF08F4E9
S11308A08FEF08950BD0C0CFB1DF28F0B6DF18F07A
S11308B0952309F0A2CFA7CF1124EACFC6DFA0F376
S11308C0959FD1F3950F50E0551F629FF001729FE1
S11308D0BB27F00DB11D639FAA27F00DB11DAA1F00
S11308E0649F6627B00DA11D661F829F2227B00D4D
S11308F0A11D621F739FB00DA11D621F839FA00DD8
S1130900611D221F749F3327A00D611D231F849F27
S1130910600D211D822F762F6A2F11249F5750407E
S11309208AF0E1F088234AF0EE0FFF1FBB1F661F19
S1130930771F881F91505040A9F79E3F510570F0D2
S11309405CCFA6CF5F3FECF3983EDCF386957795BA
S11309506795B795F795E7959F5FC1F7FE2B880FCD
S1130960911D9695879597F90895EE0FFF1F002422
S1130970001C0BBE0790F691E02D0994F894FFCF6C
S11309800000000000000000000000000F00000054
S113099000000000000000000000000000000F0044
S10F09A025010501ED010B02010000001F
S9030000FC
