S0130000537461636B657247616D652E73726563CA
S113000054C0000070C000006EC000006CC000004E
S11300106AC0000068C0000066C0000064C0000040
S113002062C0000060C000005EC000005CC0000050
S11300305AC00000E6C0000056C0000054C00000D2
S113004052C0000050C000004EC000004CC0000070
S11300504AC0000048C0000046C0000044C0000080
S113006042C0000040C000003EC000003CC0000090
S11300703AC0000038C0000036C0000034C00000A0
S113008032C0000030C000002EC000006A027A02B4
S11300908A029A02AA02BA02CA02DA02E0034C04F1
S11300A0B60452045B04E105640411241FBECFEFBF
S11300B0D0E4DEBFCDBF12E0A0E0B1E0E2E0F1E1C8
S11300C000E00BBF02C007900D92A232B107D9F72E
S11300D022E0A2E2B2E001C01D92AB36B207E1F722
S11300E073D50C947F088CCF181619065CF008950C
S11300F0000021503109E1F74F5F5F4F84179507E6
S113010019F4089540E050E027E033E0F1CF10986F
S11301108BB9119A0000119882E090E0E5CF089520
S113012081E0F5CF0895813118F48158F0CF089516
S11301308155EDCF089584E690E0D6DF88E3E7DFCC
S113014086E0E5DF8FE0E3DF81E0E1DF8AE090E055
S1130150CBCF0895109A8BB9119A0000119881E0C1
S113016090E0C2CF08950F931F93CF93DF93182F7E
S1130170EB01D6DF8881882351F001E0010F812F44
S1130180D2DF8991E7DF102F88818111F6CFDF91CB
S1130190CF911F910F910895609302017093030111
S11301A08093040190930501609355027093560265
S11301B0809357029093580208958BE080938100B6
S11301C08DE790E0909389008093880082E080938B
S11301D06F0010928500109284008091020190912A
S11301E00301A0910401B0910501809355029093FD
S11301F05602A0935702B09358028FB780688FBFFE
S113020008951F920F920FB60F9211248F939F930C
S1130210AF93BF938091550290915602A0915702DB
S1130220B09158020197A109B109809355029093A6
S11302305602A0935702B0935802892B8A2B8B2B1A
S113024099F481E080935902809102019091030115
S1130250A0910401B0910501809355029093560238
S1130260A0935702B0935802BF91AF919F918F9181
S11302700F900FBE0F901F901895CF92DF92EF92C0
S1130280FF926B017C019B01AC0160914002709173
S11302904102809142029091430277D5882309F468
S11302A052C020E030E0A901C701B6016ED581112A
S11302B006C0E1E9F0E080818870808305C0E1E94F
S11302C0F0E080818360808328E539E344E75FE3DD
S11302D0C701B6015AD588233CF48FEF9FEF909362
S11302E099008093980023C020E034E244EF56E460
S11302F0C701B6015CD618162CF41092990010921E
S1130300980015C020E030E040E053E4C701B60196
S113031052D69B01AC0160E074E284EF9AE439D5D3
S1130320A0D5615071097093990060939800109260
S1130330950010929400C0924002D0924102E09243
S11303404202F0924302FF90EF90DF90CF90089525
S11303501F93CF93DF93EC0181309105D9F0823064
S1130360910511F1892B29F580914402882399F193
S1130370813029F0823031F0833049F406C0C1E085
S1130380D0E005C0C2E0D0E002C0C3E0D0E01092EB
S1130390440211C091E080E020913F02223009F430
S11303A090E0C92FD82F07C080913F02843089F58F
S11303B012C0C0E0D0E0C130D105B1F024F42097E0
S11303C009F051C008C0C230D10519F1C330D105BC
S11303D009F444C048C060E070E0CB014EDF1092E5
S11303E03F02C0E0D0E03FC010913F02111106C0AF
S11303F060E070E882E993E440DF07C0113029F43B
S113040060E070E882E893E438DF1F5F10933F02F6
S11304102AC0C0913F02C11106C060E070E88EEAB4
S113042093E42BDF15C0C13031F460E070E08CED53
S113043093E423DF0DC0C23031F460E070E886EF4E
S113044093E41BDF05C060E070EC82E094E415DF08
S1130450CF5FC0933F02C2E0D0E005C061E77DE911
S11304608EEA93E40ADFCE01DF91CF911F910895C4
S113047080E4809390008BE08093910060E070E0D2
S1130480CB01FBCE089590E0982F8827860F911D0D
S113049040E158E055B99C012170332728609695B6
S11304A08795246025B94150A9F78AE085B915B824
S11304B0089584E085B982E085B90895CF93DF93E8
S11304C0EC01F7DFC830D10508F084C0FE01EA5B17
S11304D0FF4FF6C580914D02882329F06FE7D3DFE3
S11304E081E090E079C06FE780914502CCDF81E044
S11304F090E072C080914E02882329F06FEBC3DF35
S113050082E090E069C06FEB80914602BCDF82E03C
S113051090E062C080914F02882329F06FEDB3DF31
S113052083E090E059C06FED80914702ACDF83E037
S113053090E052C080915002882329F06FEEA3DF2F
S113054084E090E049C06FEE809148029CDF84E033
S113055090E042C080915102882329F067EF93DF35
S113056085E090E039C067EF809149028CDF85E037
S113057090E032C080915202882329F06BEF83DF30
S113058086E090E029C06BEF80914A027CDF86E030
S113059090E022C080915302882329F06DEF73DF2D
S11305A087E090E019C06DEF80914B026CDF87E02B
S11305B090E012C080915402882329F06EEF63DF2B
S11305C080E090E009C06EEF80914C025CDF80E037
S11305D090E002C080E090E0DF91CF910895413037
S11305E009F4CEC0423021F4213009F0D5C090C0C6
S11305F0211143C0861305C090E0982F882782609C
S1130600089580FF05C061FDC1C081E094E00895B4
S113061060FD06C0982F962B90FF07C020E01EC0F7
S113062081FDB7C081E094E0089520E06695869549
S11306302F5F962F982B90FFF9CF80FF0FC061FD9D
S113064002C031E001C032E0862390E0285F02C09E
S1130650880F991F2A95E2F7832B089581FD02C024
S113066031E001C032E0862390E0285F02C0880FA9
S1130670991F2A95E2F7832B0895213009F046C08B
S1130680861305C090E0982F88278260089580FF24
S11306900BC061FD02C021E001C022E0862330E0EE
S11306A0A901582BCA01089560FD06C0982F962B06
S11306B090FF0DC020E019C081FD02C021E001C0FF
S11306C022E0862330E0A901582BCA01089520E0D6
S11306D0669586952F5F962F982B90FFF9CF60FF34
S11306E004C081FD06C031E007C061FD04C031E0F3
S11306F003C032E001C032E0862390E0285F02C0EC
S1130700880F991F2A95E2F7832B08952230C1F5AB
S1130710861741F0982F962B90FF09C0982F91705F
S113072020E00FC090E0982F88278260089520E091
S1130730669586952F5F962F982B90FFF9CF982F6B
S11307409170992331F0873051F461FF0AC032E08F
S11307500DC08E3041F462FF08C032E007C031E0C2
S113076005C031E003C031E001C031E0862390E0F0
S1130770285F02C0880F991F2A95E2F7832B0895FA
S1130780862390E0982F88278160089582E096E080
S1130790089582E096E00895222309F42BCFB6CF82
S11307A0CF939C0186B1817046B196B190959470B7
S11307B02730310508F0B7C0F901E25BFF4F80C470
S11307C08111C9C181E080933E02B1C010923E0202
S11307D087E080933D02C3E0C0933C0210923B0249
S11307E081E080933A028EE080934C0299DC64E3CA
S11307F071E081E0B8DCC093440280913902833017
S1130800B1F420915C0230915D0240915E025091FE
S11308105F0268E270E080E090E030D420936102EF
S11308203093620240936302509364029FC082300B
S1130830B1F420915C0230915D0240915E025091CE
S11308405F026CE370E080E090E018D420936102D2
S113085030936202409363025093640287C02091F4
S11308605C0230915D0240915E0250915F0264E649
S113087070E080E090E002D4209361023093620241
S1130880409363025093640271C0992309F44FC0EA
S113089081E080933A0237C141FF49C0882309F4BB
S11308A08BC064C081115DC181E080933E02F9C0B8
S11308B010923E0241C081115AC181E080933E02F0
S11308C00CC110923E0238C0811104C081E08093B3
S11308D03E0211C0992309F450C181E0809338028B
S11308E04CC110923E0281E080933A02809138021A
S11308F0882311F14BC180913802811144C1FEC09B
S113090020E030E01092380281E080933A02809136
S11309103902833021F481E0809339023BC18F5F37
S11309208093390237C181E08093390205C08091F8
S11309303A02813009F000C1EDE4F2E0A5E4B2E04E
S113094085E592E011921D92E817F907D9F7E8DBE3
S113095080E591E09093010180930001BC0181E066
S113096002DC10923A0220E030E02BC180913D027B
S113097090E0FC01EB5BFD4F208122231CF41092DC
S11309803B0212C020FF04C031E030933B0204C09C
S113099030913B02332341F0FC01EB5BFD4F220F0E
S11309A0208321E030E00DC1FC01EB5BFD4F269577
S11309B0208321E030E005C190913D02973081F41D
S11309C083E08093440286E080933D02E5E4F2E014
S11309D087818093540287E0868322E030E0F1C06F
S11309E091110AC09091450280914E02892309F029
S11309F0A6C024E030E0E5C0292F30E0F901EB5B2C
S1130A00FD4F6081F901E35BFD4F8181262F28238F
S1130A1009F498C040913C0223E0209344029630AC
S1130A2039F420E0DCDD80933C0290935B020FC03C
S1130A30943038F021E0D3DD80933C0290935B0244
S1130A4006C023E0CCDD80933C0290935B02E091EE
S1130A503D02AE2FB0E0A35BBD4F80915B028C934F
S1130A60E150E0933D0280913C02833041F4F0E098
S1130A70EB5BFD4F88E3808322E030E0A2C082304C
S1130A8041F4F0E0EB5BFD4F88E1808322E030E04D
S1130A9098C0F0E0EB5BFD4F88E0808322E030E01B
S1130AA090C080913A02813009F04FC039DB68E789
S1130AB071E081E058DB10923A0282E080934402B4
S1130AC081E090E006D361E0680F60935A0281E010
S1130AD090E007D323E030E074C080913A02813083
S1130AE0B9F51EDB6AE971E081E03DDB10923A0260
S1130AF081E08093440224E030E063C080913A02B4
S1130B00813009F05EC00CDB80913902813021F420
S1130B106CEB71E028DB0BC0823029F46DED71E0E1
S1130B2081E021DB04C06FEF71E081E01CDB1092F7
S1130B303A0226E030E045C020E030E042C023E045
S1130B4030E03FC024E030E03CC023E030E039C076
S1130B5024E030E036C080913E02882309F495CE2B
S1130B6035CE80913E02882309F49BCFA1CE80919B
S1130B703E02882309F4B1CFA4CE80913E0288239B
S1130B8009F4B9CEAECE9111B9CFBCCE992309F4F4
S1130B90B7CECDCE2230310509F40ECF44F4211561
S1130BA0310509F4C9CE2130310559F4DFCE2430A2
S1130BB0310509F492CF0CF474CF2630310509F4D1
S1130BC0A2CFC901CF910895CF93DF9300D000D075
S1130BD000D0CDB7DEB78FEF81B912B884B915B89C
S1130BE017B888B98AB91BB80F2EF4E6EF2EF02D8A
S1130BF0F12C00E010E052E040E030E020E004C0DE
S1130C00E62EF72E082F192F652F742F832F922F7E
S1130C102E2D3F2D402F512F31D25E2D4F2D302FB1
S1130C20212F611571058105910551F7E0925C0250
S1130C30F0925D0200935E0210935F0266E970E039
S1130C4080E090E02E2D3F2D402F512F17D2290107
S1130C503A0162E070E080E090E02E2D3F2D402FBD
S1130C60512F0CD249015A0164E670E080E090E013
S1130C702E2D3F2D402F512F01D286E0E6E0F1E0EA
S1130C80DE01119601900D928A95E1F7EDE2F2E012
S1130C908FEF8083418252826382748245825682BE
S1130CA06782708668EA71E072876187E2E2F2E047
S1130CB0808381829282A382B48285829682A78273
S1130CC0B0866EE572E072876187E0E6F2E08083C9
S1130CD02183328343835483258336834783508718
S1130CE080ED93E092878187C3DB60915C02709111
S1130CF05D0280915E0290915F024EDA5EDA1BDA49
S1130D00D8DBD7DB7E0187E0E80EF11CDE0111960B
S1130D106D01F601019111916F01D80115964D9164
S1130D205D916D917C91189711968D919D910D9087
S1130D30BC91A02D481759076A077B0780F0F8017A
S1130D4080810184F285E02D082E000C990B099511
S1130D50D8018C93F8011582168217821086F80147
S1130D6085819681A781B0850196A11DB11D8583DA
S1130D709683A783B087CE14DF0459F68091590275
S1130D808823E1F310925902C1CF9CD008F481E08A
S1130D9008950CD0D2C0CAD040F0C1D030F021F4B4
S1130DA05F3F19F0B3C05111FCC0B6C0D7D098F35F
S1130DB09923C9F35523B1F3951B550BBB27AA27D8
S1130DC062177307840738F09F5F5F4F220F331F4A
S1130DD0441FAA1FA9F333D00E2E3AF0E0E830D016
S1130DE091505040E695001CCAF729D0FE2F27D019
S1130DF0660F771F881FBB1F261737074807AB07E7
S1130E00B0E809F0BB0B802DBF01FF2793585F4F5B
S1130E102AF09E3F510568F079C0C3C05F3FECF3F0
S1130E20983EDCF3869577956795B795F7959F5F20
S1130E30C9F7880F911D9695879597F90895E1E074
S1130E40660F771F881FBB1F621773078407BA07D3
S1130E5020F0621B730B840BBA0BEE1F88F7E0952E
S1130E60089504D06894B1119CC008957FD088F08F
S1130E709F5790F0B92F9927B751A0F0D1F0660F82
S1130E80771F881F991F1AF0BA95C9F712C0B1309D
S1130E9081F086D0B1E0089583C0672F782F88272A
S1130EA0B85F39F0B93FCCF3869577956795B395DC
S1130EB0D9F73EF490958095709561957F4F8F4F4B
S1130EC09F4F0895990F0008550FAA0BE0E8FEEF15
S1130ED016161706E807F907C0F012161306E407FA
S1130EE0F50798F0621B730B840B950B39F40A26F3
S1130EF061F0232B242B252B21F408950A2609F4D1
S1130F00A140A6958FEF811D811D089597F99F67D4
S1130F1080E870E060E008959FEF80EC089500247D
S1130F200A941616170618060906089500240A944A
S1130F3012161306140605060895092E0394000CD0
S1130F4011F4882352F0BB0F40F4BF2B11F460FF5F
S1130F5004C06F5F7F4F8F4F9F4F089557FD905888
S1130F60440F551F59F05F3F71F04795880F97FB69
S1130F70991F61F09F3F79F0879508951216130623
S1130F801406551FF2CF4695F1DF08C01616170652
S1130F901806991FF1CF8695710561050894089587
S1130FA0E894BB2766277727CB0197F908958ADF52
S1130FB008F48FEF08950BD0C0CFB1DF28F0B6DF6F
S1130FC018F0952309F0A2CFA7CF1124EACFC6DFEA
S1130FD0A0F3959FD1F3950F50E0551F629FF00148
S1130FE0729FBB27F00DB11D639FAA27F00DB11DA1
S1130FF0AA1F649F6627B00DA11D661F829F22272A
S1131000B00DA11D621F739FB00DA11D621F839FB0
S1131010A00D611D221F749F3327A00D611D231F86
S1131020849F600D211D822F762F6A2F11249F57D4
S113103050408AF0E1F088234AF0EE0FFF1FBB1FF7
S1131040661F771F881F91505040A9F79E3F510596
S113105070F05CCFA6CF5F3FECF3983EDCF386954F
S113106077956795B795F795E7959F5FC1F7FE2B41
S1131070880F911D9695879597F90895A1E21A2EE8
S1131080AA1BBB1BFD010DC0AA1FBB1FEE1FFF1F28
S1131090A217B307E407F50720F0A21BB30BE40B78
S11310A0F50B661F771F881F991F1A9469F76095BF
S11310B07095809590959B01AC01BD01CF01089579
S11310C0EE0FFF1F0024001C0BBE0790F691E02DCD
S11310D00994F999FECF92BD81BDF89A992780B5FC
S11310E00895262FF999FECF1FBA92BD81BD20BD68
S11310F00FB6F894FA9AF99A0FBE01960895F894E7
S1051100FFCF1B
S11311027701010000002D0222026002202020202B
S11311122020504C41592020202020202020202013
S11311222053434F52453A203020202020202020B3
S11311322020200020202020504C4159494E472095
S113114220202020202020202020202020202000B9
S1131152202020202020504C4159202020202020D3
S11311622020202020202020202020202020202079
S1131172202020202020200020202020594F5520EC
S113118257494E21202020202020202020202020CA
S11311922020202020202020200020202020594F01
S11311A255204C4F53452020202020202020202051
S11311B220202020202020202020200020204469DC
S11311C266666963756C74793A2020202020202099
S11311D22045415359202020202020200020204453
S11311E26966666963756C74793A20202020202030
S11311F2204D454449554D20202020202020002008
S113120220446966666963756C74793A20202020EB
S11312122020202048415244202020202020202029
S10512220000C6
S9030000FC
